:020000022000DC
:1060000000000420D5EB030015EC030045F7030066
:1060100019EC03001BEC03001DEC03000000000062
:1060200000000000000000000000000055EB03002D
:1060300021EC03000000000075EB030025EC0300D9
:10604000A5EE030027EC030027EC030027EC030078
:1060500027EC030027EC030027EC030027EC0300E8
:1060600027EC030027EC030027EC030027EC0300D8
:1060700027EC030027EC030027EC030027EC0300C8
:1060800027EC0300ADE8030027EC030027EC030036
:1060900027EC030027EC03002DF7020027EC030098
:1060A00027EC030027EC030027EC030027EC030098
:1060B00027EC030027EC03000000000000000000B4
:1060C00027EC030027EC030027EC030027EC030078
:1060D00027EC030027EC030027EC030019C303009F
:1060E00027EC030027EC030027EC0300000000006E
:1060F0000000000027EC03000000000027EC030074
:10610000000000000000000000000000000000008F
:10611000000000000000000000000000000000007F
:10612000000000000000000000000000000000006F
:10613000000000000000000000000000000000005F
:10614000000000000000000000000000000000004F
:10615000000000000000000000000000000000003F
:10616000000000000000000000000000000000002F
:10617000000000000000000000000000000000001F
:10618000000000000000000000000000000000000F
:1061900000000000000000000000000000000000FF
:1061A00000000000000000000000000000000000EF
:1061B00000000000000000000000000000000000DF
:1061C00000000000000000000000000000000000CF
:1061D00000000000000000000000000000000000BF
:1061E00000000000000000000000000000000000AF
:1061F000000000000000000000000000000000009F
:10620000F1EE103A43F08073E1EE103A704700BFB0
:1062100010B5054C237833B9044B13B10448AFF3E0
:1062200000800123237010BDB8630020000000002F
:106230005884040008B5034B1BB103490348AFF36E
:10624000008008BD00000000BC63002058840400EA
:10625000154B002B08BF134B9D46A3F5803A002138
:106260008B460F461348144A121A1AF021FA0F4BA4
:10627000002B00D098470E4B002B00D098470020F1
:10628000002104000D000D48002802D00C48AFF397
:1062900000801AF09BF92000290018F0FFFC1AF08A
:1062A0006FF900BF0000080000000420000000009B
:1062B00000000000B86300200CD80020000000009F
:1062C0000000000041F2A873984200F00B8117D83B
:1062D00040F6A763984200F0038140F2898041F2C2
:1062E000A733984200F0EF8076D941F2A753984245
:1062F00000F0DB8041F2A763984219D1E520704796
:1063000042F2A703984200F0E88030D942F2A75346
:10631000984200F0DA801BD942F2A773984200F04D
:10632000C18043F6A723984209D14FF40E707047FD
:1063300041F2A74398420CBFE3200020704742F28D
:10634000A76240F2272390420CBF184600207047F6
:1063500042F2A733984200F0B1801AD942F2A74224
:1063600040F2252390420CBF18460020704741F6AA
:10637000A843984200F0AC8021D941F6A763984227
:1063800000F08D8041F6A77398420FD14FF4C97089
:10639000704742F2A713984276D042F2A72240F209
:1063A000232390420CBF18460020704741F6A752A5
:1063B00040F2831390420CBF18460020704741F60C
:1063C000A823984277D024D941F6A83398420CBF2D
:1063D0004FF4AA700020704741F2A713984268D08A
:1063E00023D941F2A72398420CBFE0200020704738
:1063F00040F6A70398426ED02DD940F6A7339842B5
:1064000055D01DD940F6A74398420CBFC8200020A4
:10641000704741F6A80398423FD041F6A81398422E
:106420000CBF4FF4A9700020704740F6A773984244
:1064300031D041F2A70398420CBFB620002070472C
:1064400040F6A713984224D040F6A72398420CBFE9
:10645000C6200020704740F2A763984231D0B0F5C3
:10646000D56F06D340F2A77398420CBF6F2000206F
:10647000704740F2A743984209D040F2A753984290
:106480000CBF31200020704740F22120704730209F
:1064900070470C207047B5207047EA2070474FF4D2
:1064A000C570704740F22A207047E4207047C7202B
:1064B0007047B720704740F2531070474FF409708F
:1064C000704732207047E220704740F22620704724
:1064D00040F255107047702070474FF4CA707047F3
:1064E000CD207047E9207047FEE700BF38B504466D
:1064F0000D460C3000F088FDC5F3074205232583C7
:10650000C4F81A202360204638BD00BFF0B59DB204
:10651000012D42D171B34C1EE4B2C4EB041402EB62
:106520004205640004EB4504A0F11E0600F1180CBE
:10653000044406EB4506E646570001E0A6421CD09F
:10654000258B012DA4F11E04F8D0C1EB01114900E7
:10655000174401EB47070EEB0701C3F307432EF87F
:106560000750C1F80230BDB1BDE8F04011460C3013
:1065700000F050BD00F1180C57003A445200C1EB36
:10658000011102EB41010CEB0102C3F307430020B0
:106590002CF80100C2F80230F0BD00F1180E5700CF
:1065A000D3E700BF0C3000F041BD00BF0C3000F05D
:1065B0005DBD00BF70B5064601F10C000C461546E6
:1065C00000F088FD431E042B15D822689A421ED085
:1065D000C5EB051204EB420203EB430502EB450257
:1065E000236052F8180F60609388238123893060FC
:1065F000B380304670BD0023A380E38023816068B0
:10660000228930600523B2802360304670BD20F0BF
:106610000200012804D000233380C6F80230F4E7DA
:10662000D4F80630012BF6D0606823893060B3803F
:10663000EBE700BF10B50446006808B118F090FB06
:10664000204610BD10B4034C034B21601A605DF866
:10665000044B7047686400206C64002038B51468EF
:106660000B6808494FF4A27202FB04F241F2740570
:10667000044605FB032008442146FFF793FF024B25
:106680001C6038BD2C680020F063002030B4156811
:106690000B68074C4FF4A27202FB05F241F274053D
:1066A00005FB03230146E01830BCFFF77FBF00BFA6
:1066B0002C6800202DE9F04F344A3548354C0078DD
:1066C0003549364D53782070002483B008702C7003
:1066D000002B4ED001204FF005094FF0040E032788
:1066E00002244B7028700346C846F4463E462046B6
:1066F0004FF0060B92F802A0BAF1000F0DD0CB18A4
:10670000019323463C46019F287087F801A030463C
:1067100077466646CE46C446D84692F80390B9F10D
:10672000000F0AD001EB030A2870234630463C468E
:1067300066468AF80190C446774692F804E0BEF1B6
:10674000000F07D00B44287083F801E03046234641
:1067500066463C46577927B10B4428705F70304637
:106760002346927912B10B4428705A7003B0BDE8E9
:10677000F08F4FF004094FF0030E02270124C846A2
:10678000F4463E4620464FF0050BB3E72064002058
:1067900072640020E0630020346400204D64002017
:1067A00030B40A4D012404FA00F02B8804FA01F1F8
:1067B000014388B21940814205D123EA010104FA5C
:1067C00002F30B439BB22B8030BC70475E64002009
:1067D000014B1868704700BFF06300202DE9F84FA7
:1067E000D0E900896FF04045A9EB0803B5EB630FD2
:1067F0004BD093465A1006460F46A1EB0804002AD8
:1068000041D09A421BD9254D284618F089FA824674
:10681000BBF800302AF80430002C054418DCA9EB42
:1068200007090234B9F1000F544426DC4C44B8F196
:10683000000F1AD1C6E900A4B560BDE8F88F3BBBD4
:106840009A461D46002CBBF800302AF80430E6DDDD
:10685000224641465046A9EB070919F00FFF0234C2
:10686000B9F1000F544408DC4C44404618F078FA63
:10687000C6E900A4B560BDE8F88F39464A4620460F
:1068800019F0EEFED2E70225BEE70548FFF72CFE21
:10689000AB4228BF2B465D00B6E700BFFEFFFF7F7F
:1068A000483D04000B1A30B4DD10002D3ADD13888A
:1068B00000EBC5050BE044889C420DD084889C42C7
:1068C0000DD0C4889C420DD00830A8420DD0048859
:1068D0009C42F0D130BC7047023030BC704704306D
:1068E00030BC7047063030BC70470B1A5B10022B6F
:1068F00012D0032B0AD0012B02D0084630BC7047BF
:10690000138802889A42E5D00846F7E71388028880
:106910009A42DFD0023000E0138802889A42D9D030
:106920000230EEE75B10E2E72DE9F04F914D924F18
:10693000D5E900139942D7E90043A3EB040218BF3D
:106940006960002A87B04FEA620619DDDFF8248209
:1069500008E0228823F8022B013E6B6004F1020458
:106960000CD06968AA688A420B46F2D1224640469A
:10697000FFF734FF013E04F10204F2D1D7E90043EE
:10698000A34218BF7C607D4C208805F059F823880D
:106990005BB15A085B1008D0002701375310FFB2D3
:1069A0009AB2002BF9D1BBB200E01F46744A754E73
:1069B0001268DFF8E0B1DFF8D891DFF8CCA11382DC
:1069C0004FF00008A6F58354143C03E004F5A274CC
:1069D000A64221D03A46214604A8FFF7EBFDBDF8B8
:1069E0001020ADF80E20002AF0D0D5E90110814228
:1069F000DDF812307AD021F8022B6960012B5CD0CF
:106A0000022B7BD09DF80E3004F5A274DF2B98BFCB
:106A10004FF00108A642DDD106F583561436B34582
:106A2000D0D1D9E900431B1B002B4FEA630616DDCA
:106A3000504F07E0228823F8022B013E6B6004F1DF
:106A400002040CD0D5E9011291420B46F2D1224644
:106A50003846FFF7C3FE013E04F10204F2D1B8F15B
:106A6000000F27D0484FD7E900431A1B002A4FEAEE
:106A7000620619DDDFF8FC8007E0228823F8022B8C
:106A8000013E6B6004F102040CD0D5E90112914281
:106A90000B46F2D122464046FFF7A0FE013E04F12C
:106AA0000204F2D1D7E900439C42384B18BF7C6006
:106AB00000221A8007B0BDE8F08FD9E900010DF17E
:106AC0000E024FF00003FFF7EDFED9F804209042CC
:106AD000014638D002318A4204D0521A19F0CEFD54
:106AE000D9F804100239C9F804106FE7214801935E
:106AF0000DF10E02FFF772FE019B7FE7DAE900015C
:106B00000DF10E024FF00003FFF7CCFEDAF804108F
:106B100081427FF45BAFDAF80830994224D0BDF8A7
:106B20000E3021F8023BCAF804109DF80E30EF2B0E
:106B30007FF64CAF1548F03B0188012202FA03F3BF
:106B40000B43038042E7D9F80830984206D0BDF8DD
:106B50000E3021F8023BC9F8041037E70C480DF15C
:106B60000E02FFF73BFE31E70DF10E025046FFF734
:106B700035FEDAE7D4630020E46300205E64002081
:106B80006C640020A0780020406400201C64002079
:106B90002864002070BA00202DE9F04F9C4EDFF8E9
:106BA000AC92DFF8AC829B4F9B4C9C4D96E8070063
:106BB0004B4603C34FF0000A83B01A80C6F800A00A
:106BC000A6F804A086F806A0A6F808A088F800A0F9
:106BD00087F800A0FFF76EFD914B924AB4F800B021
:106BE0001B881188904A4BEA03030B431380FFF77D
:106BF0009BFED5E900218A42A4F800A000F0748130
:106C0000534694464FF0010E3CF8020BC0B2A0F17F
:106C1000F00AEF280EFA0AFA03D94AEA03039BB2F4
:106C200023806145F0D1DFF82CA2DFF82CC2BAF83E
:106C30000000BBEB030B18BF4FF0010B8CF800B04A
:106C4000002840F0338179480190044698F80050BC
:106C5000387894F800B096460AE07419013540EA95
:106C60000C006270EDB2062D08BF0025714560D0A2
:106C70003EF8024BE2B2A2F1040A5FFA8AFABAF1D4
:106C8000A00F4FEA142CE8D9A53A422A00F25F81FE
:106C9000DFE812F08B0043007C007900760073007F
:106CA00043005D015D015D015D015D015D015D010F
:106CB0005D015D015D015D015D015D015D015D01E4
:106CC0005D015D015D015D015D015D015D015D01D4
:106CD0005D015D015D015D015D015D015D015D01C4
:106CE0005D015D015D015D015D015D015D015D01B4
:106CF0005D015D015D015D015D015D015D015D01A4
:106D00005D015D015D015D015D01B800B200AC0097
:106D1000A600A0009A0094008500BBF1000FA2D14C
:106D2000062D434A08BF0025714514804FF0010B22
:106D30009ED130703288B9F800103870019888F808
:106D40000050914280F800B0338100F08780394BC9
:106D500039491B681868986001230B70BBF1000F5C
:106D600007D07388B18813430B439BB2002B00F00C
:106D7000AC80012003B0BDE8F08F304A148072E788
:106D80002F4A14806FE72F4A14806CE7BBF1000F85
:106D90007FF469AF2B4A4FF0010B148063E740EAA0
:106DA0000C0060F07F00C0B25DE7BBF1000F7FF424
:106DB0005AAF254A4FF0010B148054E740EA0C000B
:106DC00040F04000C0B24EE740EA0C0040F0200026
:106DD000C0B248E740EA0C0040F01000C0B242E701
:106DE00040EA0C0040F00800C0B23CE740EA0C006A
:106DF00040F00400C0B236E740EA0C0040F0020068
:106E0000C0B230E740EA0C0040F001002BE700BFC1
:106E100034640020E0630020E2630020D46300209B
:106E2000046400201C6400205E6400205C64002078
:106E30005A6400206C6400204C640020066400202A
:106E400064640020706400206264002050640020AC
:106E50004D6400206064002008640020B9F8081028
:106E600099427FF474AF7188B9F8023099427FF487
:106E70006EAFB188B9F8043099427FF468AF99F8E1
:106E80000630B17999427FF462AF324B32491B68C8
:106E90001C689A68A21A00207D2A08707FF66AAFE3
:106EA00001209C60087003B0BDE8F08FAB68994288
:106EB00046D021F8020B696000208A422388AAF894
:106EC00000007FF4C0AE18461CE0B379002B7FF4BD
:106ED00050AF224C22482349234A019D23802B7026
:106EE00003800B80138044E7DFF888A01F4BBAF8BB
:106EF0000000BBF1000B18BF4FF0010B83F800B08E
:106F00000028D3D11A4B01931B783A783270308124
:106F100013B1019A002313703288B9F800309342FC
:106F200007D00C4B0C4A1B6801211868986011703F
:106F30001FE7B9F808308342F3D14FF0000B92E716
:106F40000C4A0D48FFF74AFCD5E90021B4E740EAB6
:106F50000C0088E66C6400204C6400206264002011
:106F60005A640020706400206464002008640020DB
:106F70005C64002060640020D46300201A481B4A2F
:106F80001B49D0B50024C0E90044846019F0B8FA68
:106F90001848164A16498460C0E9004419F0B0FA4E
:106FA0001548124A1249846000260027C0E900678C
:106FB00019F0A6FA11480D4A0D498460C0E9004451
:106FC00019F09EFA0E48094A09498460C0E9006731
:106FD00019F096FA0B48054A8460C0E90044044958
:106FE000BDE8D04019F08CBAD463002000600020C6
:106FF00035660200E4630020F86300202864002066
:1070000010640020406400200022C0E901220280B8
:10701000827070474B1E012B05D9033901299CBF93
:107020000123837070470123437070474368012B2D
:1070300011D033F0020306D103782BB901231A468D
:10704000C0E90121037070478278002A16BF00232F
:1070500001220522F4E78368CB1AC82BF3D94378C1
:10706000002BF0D00323C0E901317047D0E90123A0
:10707000012A10B4A1EB030319D0C82B03D8F2B92D
:107080005DF8044B704703784BB183783BB1042221
:107090000023C0E901215DF8044B03707047002A0A
:1070A000EED00023C0E901315DF8044B704744780D
:1070B00054B9C82B03D90378002BF2D0E5E7142B81
:1070C000EFD85DF8044B70470223C0E901315DF849
:1070D000044B704740687047014B1870704700BF01
:1070E00004600020054A1388C3F580618B42BABF53
:1070F00008339BB24FF48063138070470860002010
:10710000044A1388082B86BF083B9BB208231380D0
:10711000704700BF08600020084B09481A880188A2
:1071200047F6FF7310B4A3EB8204A14202DA920087
:107130008B189BB25DF8044B0380704708600020F9
:1071400006600020064B074A198813888800B3EBB5
:10715000810FC6BF1B1A9BB200231380704700BF6C
:107160000860002006600020024B47F6FF721A807C
:10717000704700BF06600020044A13780133DBB279
:10718000032B88BF00231370704700BF04600020EA
:1071900040F63D23984238D941F27B4398422BD99F
:1071A00041F6B86398423CD942F6F503984231D98A
:1071B00043F23333984239D9B0F5804F49D344F67E
:1071C000CC43984251D945F69913984239D946F2A1
:1071D000666398424ED947F25C53984254D8314B7B
:1071E000C0EBC000C0EBC000A3FB002347F6A070BB
:1071F00000EBD30080B270472B4B00EB4000A3FBA9
:10720000003000096B3880B27047284BA3FB003078
:107210004008704700EB4000C010A0F2366080B21A
:1072200070478008A0F26F2080B270471A231D4A71
:1072300003FB00F0A2FB00300009A0F6424080B240
:10724000704700EB80008010A0F57350383880B292
:107250007047144B00EBC0004000A3FB0030C00897
:10726000A0F5B2500C3880B27047A0F51A5008381B
:1072700080B270470C4BC000A3FB00308008A0F523
:10728000B540163880B27047C0EB0012054BC0EB1A
:107290008200A3FB002345F2B00000EBD30080B2D4
:1072A000704700BF1F85EB51CDCCCCCC398EE33875
:1072B00070B52C4A1378032B21D8DFE803F01302B2
:1072C0002318B0F57A7F2ED2274B284C1888284DEA
:1072D0002080FFF75DFF04F0F1FFB4F900202B8858
:1072E0009A420EDABDE87040002004F0E7BF1F4B61
:1072F0001888FFF74DFFBDE8704004F0DFBF0023A2
:10730000137070BD1B4B1878C8B1174A184D174C35
:1073100010882A88B4F90010861AB1421ADA501877
:1073200080B22080D5E7114C114DB4F900002B88B4
:107330009842C6BFC01A80B200202080C9E70B4C1B
:107340000B4DB4F9002029888A4207DD501A80B21B
:107350002080BEE7002220801A70BAE70122208038
:107360001A70B6E704600020066000200A60002062
:10737000086000200560002008B5064809F05EFBA3
:107380000448082109F026FEBDE808400148012113
:1073900009F066BB78640020014B1860704700BF9D
:1073A00010600020F0B5B0F57A7F83B042D26A4C0D
:1073B000FF232370694809F079FE15F015F8684B32
:1073C0001B6842F2A64293420CD020D943F6A62273
:1073D00093427ED010D90023604800931A46194684
:1073E00009F016FE21785D4809F038FE5B4803B0CD
:1073F000BDE8F04009F04EBB42F2A6629342F1D0E4
:1074000023F4007342F2A6529342E4D1EAE742F237
:10741000A60293421DD042F2A5029342DBD942F26A
:10742000A6229342DED023F4007342F2A6129342C6
:10743000D1D1D7E7B0F5206F03D3474C0023237099
:10744000B8E7484B444CA3FB00306FEAD0002070F3
:10745000B0E7C0F3071040F26712434D237802FBF8
:1074600000F2C2F30F22A5FB02614909C1EB01162C
:10747000A2EB860292B2C2EB0222A5FB0252520993
:107480003A4882F0FF05C5EB0525C2EB022280FBDE
:10749000056780FB02C616442F44D217ED17A2EBF6
:1074A000E612A5EBE715FF35FF3203FB05F503FBFD
:1074B00002F2A0FB05650139A0FB0202C2F3C7126C
:1074C000C5F3C71004293BD8DFE801F03C2F2D3E5F
:1074D0004200274E3278032A14D8012A14D0254DB1
:1074E0000023022A2B7016D11A4623786B70174698
:1074F00000971A48AF70002109F08AFD33780133F4
:1075000033706FE7012333701A4D22782A700023FD
:107510006B701F46ECE7032A08BF27786B701A468A
:1075200018BF1F46E4E7184613460022114D00908D
:107530000021A8702A7009486B7009F069FD51E7B5
:107540001A4603460020F1E7024618460023EDE7FD
:1075500010461A460023E9E70C60002078640020FA
:1075600010600020CDCCCCCC898888888180808038
:10757000736400207464002000B5084883B009F0EB
:1075800095FD0023054800931A46194609F040FD71
:10759000024803B05DF804EB09F07CBA786400207F
:1075A00010B5054C204609F029FA2046034A044943
:1075B000BDE8104018F0A4BF7864002000600020EF
:1075C000210A03007ADF7047034AD37C23F00103CA
:1075D00043F00603D374704754670020024AD37CFB
:1075E00023F00603D374704754670020014B99744D
:1075F000704700BF5467002008B50849084819F0D3
:107600001BFF084819F018FF0A2019F02DFF064942
:10761000064A0023CB74138008BD00BF643D0400FC
:107620006C3D0400743D0400546700207465002024
:107630002DE9F04188B00023014604462C4802930E
:10764000CDE90033CDE90333CDE90533079308F0E5
:1076500061F820226946074606F024F825492648A5
:10766000264E19F0E9FE6A462146254819F0E4FE47
:107670000A2019F0F9FE0621384606F03DF8694661
:1076800020481AF006F896F82F504FF0200808FB13
:10769000056548352946424668461AF01BF8E0B9A8
:1076A000194D384605F0FCFF96F82F30183336F8A0
:1076B0001320824204D026F81300012385F8AF304E
:1076C000EB7C124AA5F85C4023F0070343F0080363
:1076D000EB74148008B0BDE8F081284642460A4D9C
:1076E00069461AF009F8012385F8AF30D9E700BFE1
:1076F00094AA0020643D04006C3D0400AC660020A8
:10770000843D0400906700205467002074650020C9
:107710000F4BB3F85C20824213D0B3F88020824232
:1077200009D0B3F8A420824204D1012283F8A61024
:1077300083F8AA207047012283F8821083F8A920D9
:107740007047012283F85E1083F8A820704700BFBD
:107750005467002010B50349044607F0C1FE2046D7
:1077600010BD00BF94AA002010B5174C062120467A
:1077700004F0BCFF204604F0A1FF204640F2C131D6
:1077800004F0C8FF1149204604F05AFF204604F0D7
:1077900067FF2046012104F0F7FFF4222046202154
:1077A00004F0E6FF20461E2104F0E0FF2046002101
:1077B00005F06CF82046064904F0DEFF2046054936
:1077C000BDE8104004F0DABF94AC0020D064002083
:1077D000C9750200DD750200014805F06DB800BFF3
:1077E00094AC002010B50A4C0A480023E37404F05E
:1077F000C7FF18B1E37C43F00403E374064807F0C5
:1078000049FF18B1E37C43F02003E37410BD00BFCF
:107810005467002094AC002094AA002008B50348C7
:1078200007F038FF003818BF012008BD94AA0020D7
:10783000024B0348198807F04BBF00BF7465002056
:1078400094AA002030B587B001AB83E807000F4948
:10785000DDF805309DF804209DF809509DF80A4098
:10786000049309880A488DF8145004AB8DF815402C
:1078700008F03EF90749084819F0DEFD074819F0FD
:10788000DBFD0A2019F0F0FD07B030BD7465002063
:10789000D0640020983D04006C3D04009C3D040031
:1078A00040F6A943984200F08B8014D840F6A90313
:1078B000984200F0A4802AD940F6A923984200F00B
:1078C000A78040F6A933984216D1564B56481988DE
:1078D000042208F039B941F2A913984276D031D97F
:1078E00041F2A933984277D041F2A943984221D17D
:1078F0004E4B10221A70704740F6A913984240F080
:107900008E80484B48481988012208F01DB940F282
:10791000A96398426AD025D940F2A973984242D10E
:10792000424A404B127819883F48524252B20023D3
:1079300008F03EB941F2A923984271D13B4B012294
:107940001A70704740F6A973984249D01CD941F289
:10795000A903984228D1334B334819884FF0FF329E
:1079600008F062B940F2A94398421ED040F2A953F0
:10797000984253D12D4B2B4A1B7811882A485B42E1
:107980005BB2002208F014B940F6A953984211D016
:1079900040F6A963984244D1224B234819884FF0FE
:1079A000FF3208F023B9704770471E4B1E481988F4
:1079B00008F0E6B81B4B1C481988102208F0C4B820
:1079C000184B19481988082208F0BEB8154B1648FC
:1079D0001988012208F028B9144B08221A70704740
:1079E000104B11481988012208F000B90D4A0F4BBD
:1079F000118893F900300C48002208F0D9B8094BDF
:107A00000A4A198892F900200748002308F0D0B8E4
:107A1000044B05481988022208F096B87047704751
:107A20007047704774650020D06400201460002007
:107A300010B50A4B0A4C198882B00191FEF742FC3E
:107A400001990246204608F071F8082014F0D8FC8D
:107A5000204602B0BDE8104008F002B9746500206D
:107A6000D064002010B5074C074807F027FF2046D8
:107A700008F014F82046054A0549BDE8104018F002
:107A80003FBD00BFD0640020906400200060002053
:107A9000BD7B020030B53A4B044693E8030087B043
:107AA00004AD002285E803000121364807F0C2FA40
:107AB0003448002107F0BCFD0021324807F06AFD80
:107AC0003149304807F02EFD2E48042107F0AEFA68
:107AD0002C48012107F0A6FA40F2C131294807F0ED
:107AE000D1FD2A49274807F01DFE2846FFF76AFD09
:107AF0002749284806F036FB2749264806F034FB7C
:107B000034BB264926480A2207F012FF0E222549D7
:107B1000234807F009FF224807F00EFF224807F02C
:107B200099FE6421204807F089FE204804F04EF9B0
:107B30001F4B2048002400250022C3E900451A817C
:107B400008F09EF81C491B4807F0BAFF07B030BD8B
:107B500068460C4907F0C4FC00980290C0F3072067
:107B60000444BDF804209DF8063006488DF809400D
:107B700002A9ADF80C208DF80E3007F0B7FCC0E775
:107B8000E43D040094AA0020BC3D040011770200EB
:107B90003176020044AD0020F9750200C83D0400B2
:107BA00090640020D43D0400FCA900202866002039
:107BB00078650020D0640020ED75020010B5044BFC
:107BC000044640F84C3B04F0A3FF204610BD00BF24
:107BD000205F040010B50446006808B117F0C0F833
:107BE000204610BD2DE9F0476848694E694C8CB0BD
:107BF00017F07CFD684817F079FD0FCE01AD0FC579
:107C00000FCE0FC596E8070003C525F8022B634980
:107C1000634E120C20462A7010F070FA614920461B
:107C200010F06CFA204610F049FA5F49204610F037
:107C300065FA0DF1030A00275BE05C49204610F06D
:107C40000FFA0A222946204610F06EFB31462046E4
:107C500010F006FA284618F08FF90A22C1B2204621
:107C600010F062FB3146204610F0FAF90221284656
:107C700018F024F9284618F07FF95FFA80F80A22F4
:107C80004146204610F050FB3146204610F0E8F9FE
:107C90000321284618F012F9284618F06DF95FFA0A
:107CA00080F949460A22204610F03EFB3146204624
:107CB00010F0D6F9B8F1000F40D0B9F1010F0CBFA8
:107CC0003B493C49204610F0CBF9012D3CD9092D08
:107CD0004BD00A2D44D0202D3BD13749204610F0FF
:107CE000BFF9013731462046FFB210F007FA2B2FBB
:107CF00040D01AF8015F0021284618F0DFF80A2268
:107D00003946204610F010FB3146204610F0A8F905
:107D100029460A22204610F007FB3146204610F083
:107D20009FF91F2D89D92549204610F099F90A227B
:107D3000A5F12001204610F061FB87E7204920468D
:107D400010F08EF9012DC2D81E49204610F088F996
:107D5000C7E7122DC5D11C49204610F081F9C0E7B4
:107D60001A49204610F07CF9BBE71949204610F06B
:107D700077F9B6E7054817F085FC074817F082FC4D
:107D80000CB0BDE8F04704F0C7BA00BF146800208B
:107D9000143F0400C0BE002040660020703E040076
:107DA000043F04007C3E0400A03E0400C83E0400E2
:107DB000D83E0400E03E0400FC3E0400CC3E04003B
:107DC000D03E0400E43E0400083F0400F43E0400FA
:107DD000EC3E04002DE9F84FD0E900960546A6EBED
:107DE00009036FF00040834251D08A469346002B2E
:107DF00048D0B3EB430F4FEA430831D98046AAEB92
:107E00000904404616F08CFF074680449BF800307A
:107E10003B55002C0FDCA6EB0A060134002E3C4437
:107E200026DC3444B9F1000F11D1C5E90074C5F85E
:107E30000880BDE8F88F224649463846A6EB0A0678
:107E400018F01CFC0134002E3C4411DC344448463C
:107E500016F086FFC5E90074C5F80880BDE8F88F04
:107E6000B8F1000FCADBA1EB0904CAD14746CDE740
:107E700020465146324618F0F3FB3444B9F1000F66
:107E8000D3D0E4E7A1EB09044FF00108B9E70148BA
:107E9000FEF72AFB483D04000B1A30B49D10002D5C
:107EA00015DD137800EB85050BE044789C4229D062
:107EB00084789C4229D0C4789C4229D00430A842BE
:107EC00004D004789C42F0D130BC70470B1A022BCE
:107ED00012D0032B04D0012B08D0084630BC7047C9
:107EE000137802789A42EFD0013006E013780278D6
:107EF0009A42E9D00846F1E7137802789A42E3D033
:107F00000130F4E7013030BC7047023030BC7047BC
:107F1000033030BC704700BF38B5384C054601E02F
:107F200010F078FB204610F057FB00282046F7DCC5
:107F30003349324810F0E2F8002D49D031492F483A
:107F400010F0DCF82E492D4810F0D8F82E492B48B7
:107F500010F0D4F82D49294810F0D0F828492748C6
:107F600010F0CCF82A49254810F0C8F829492348D0
:107F700010F0C4F82849214810F0C0F827491F48DC
:107F800010F0BCF826491D4810F0B8F825491B48E8
:107F900010F0B4F81A49194810F0B0F822491748FF
:107FA00010F0ACF82149154810F0A8F8144913480E
:107FB00010F0A4F81E49114810F0A0F81D490F4810
:107FC00010F09CF8BDE838400D490C4810F096B808
:107FD00019490A4810F092F80949084810F08EF83B
:107FE0000949064810F08AF81449044810F086F848
:107FF0001349024810F082F8ACE700BFC0BE002071
:10800000EC3D0400403F0400703F04005040040079
:1080100084400400A4400400C0400400DC4004008C
:1080200004410400204104003C4104006841040074
:10803000A4410400CC4104009C3F0400C83F04005C
:108040000C4004002DE9F04FDFF888A3DFF8889397
:10805000A1B0D84C204610F0BFFA002840F3C184EC
:1080600004F05AF9204610F0D5FAC0B2203855284D
:10807000F0D801A353F820F0578602005580020083
:108080005580020055800200558002005580020094
:108090005580020055800200558002005580020084
:1080A0005580020055800200558002005580020074
:1080B0005580020055800200558002005580020064
:1080C0005580020055800200558002005580020054
:1080D0005580020055800200558002005580020044
:1080E0005580020055800200558002005580020034
:1080F0005580020055800200558002005580020024
:108100005580020055800200558002005580020013
:108110005580020055800200558002005580020003
:1081200055800200558002005580020055800200F3
:1081300055800200558002005580020055800200E3
:1081400055800200558002005580020055800200D3
:1081500055800200558002005580020055800200C3
:1081600055800200558002005580020055800200B3
:1081700055800200558002005580020055800200A3
:108180000B86020001860200A18602009986020089
:1081900055800200A786020095840200FF84020039
:1081A00055800200338302005580020015820200D0
:1081B0005580020055800200D781020055800200E0
:1081C000178A02005580020055800200D18102000A
:1081D00017F05AFD3DE7784C237B2578032B00F2FE
:1081E0002784DFE813F06302760204000400632DA5
:1081F000606840F2F98318F0F5F813AC02460B46BC
:1082000000956E49204619F0FFF9214669480FF0A4
:1082100075FF1EE76A486B4D6B4E17F067FA6B48A7
:1082200017F064FA0020FFF777FE0FCD08AC059435
:108230000FC40FCD0FC495E8070003C4336824F8BA
:10824000022B13F001034FEA1242227000F0AD83BB
:108250005F48036813F0010300F09983DFF854814D
:10826000404610F0B9F90446002840F0648304F059
:1082700053F80DF11F03059D069315E0DAE900019F
:108280004FF000033246FFF707FEDAF80410814290
:1082900000F02F820DF14A03B34206D101350DF1F2
:1082A0004B03AB4200F00B83069E95F800B016F826
:1082B000017F5846012117F001FE3846032117F0CF
:1082C000FDFD5846002117F039FE384617F054FEE0
:1082D000012103465846079317F030FE384617F041
:1082E0004BFE002102465846934617F0E7FD3846FC
:1082F000002117F0E3FD079B13F0FF0FCAD11BF01D
:10830000FF0FC7D0D9E900012A46FFF7C5FDD9F80C
:1083100004108142B2D1D9F80830994200F0C382EA
:108320002B780B70D9F804300133C9F804300124DC
:10833000A4E72348234D244E17F0D8F9234817F01B
:10834000D5F90120FFF7E8FD0FCD08AC05940FC467
:108350000FCD0FC495E8070003C4336824F8022B3F
:1083600013F001034FEA1242227000F02C831848E8
:10837000036813F0010300F0FC82DFF83880404608
:1083800010F02AF9002840F05C8203F0C5FFD9E91B
:108390000032934218BFC9F80430DAE90032934240
:1083A00018BFCAF804300DF11F03059C0693002680
:1083B0002AE000BFC0BE0020286600207C470400E1
:1083C00014680020143F04008865002040660020E7
:1083D0008465002090650020A0650020DAE9000196
:1083E0004FF000032A46FFF757FDDAF804108142E8
:1083F00000F0AC820DF14A03AB4206D101340DF11D
:108400004B03A34200F0E281069D94F800B015F8FA
:10841000017F5846012117F051FD3846032117F01E
:108420004DFD5846002117F089FD384617F0A4FD90
:10843000012103465846079317F080FD384617F090
:108440009BFD002102465846934617F037FD3846FB
:10845000002117F033FD079B13F0FF0FCAD11BF06B
:10846000FF0FC7D0D9E900012246FFF715FDD9F863
:10847000043098420146B1D1D9F80830984200F052
:10848000468123780370D9F804300133C9F80430E9
:108490000126A3E7A149A2480FF030FEA149A04858
:1084A0000FF02CFEA0499E480FF028FE9F499C48E3
:1084B0000FF024FE9E499A480FF020FE9D499848EF
:1084C0000FF01CFE9C4996480FF018FE9B499448FB
:1084D0000FF014FE9A4992480FF010FE9949904807
:1084E0000FF00CFE98498E480FF008FE97498C4813
:1084F0000FF004FE89498A480FF000FEA9E594496F
:108500008748944D0FF0FAFD844985480FF0F6FD39
:10851000914983480FF0A4FD904B814819681022BF
:108520000FF0F6FE8E4B7E4819684FF080541022F3
:108530000FF002FFD4F800218A49D4F804317848BA
:108540000FF02CFED4F810218749D4F80C31744870
:108550000FF024FE854972480FF0D0FD8449704821
:108560000FF0CCFD83496E4813AC0FF0C7FD6B498B
:108570006B480FF0C3FD002300227F49204619F00D
:1085800043F8214666480FF0B9FD6FF059027B4968
:10859000204619F039F8214661480FF0AFFD7849BF
:1085A0005F480FF0ABFD95F98220764905F1600335
:1085B000204619F029F8214659480FF09FFD95F9FA
:1085C0005E20714905F13C03204619F01DF8214653
:1085D00053480FF093FD95F9A6206C4905F18403EB
:1085E000204619F011F821464D480FF087FD4B4900
:1085F0004B480FF083FD17F099F917F0B5F828E50F
:1086000000F0EAFA02F082FF23E5614944480FF0E6
:1086100075FD604942480FF071FD41480FF04EFD75
:108620005D493F480FF06AFD012007F067FF022017
:1086300007F064FF594804F00DFA39480FF03EFD89
:10864000574937480FF05AFD012007F057FF022025
:1086500007F054FFFDE4534931480FF04FFD5249F4
:108660002F480FF04BFD51492D480FF047FD504961
:108670002B480FF043FD4F4929480FF03FFD4E496D
:1086800027480FF03BFD254925480FF037FD4B49A2
:1086900023480FF033FDDCE4494808F013FED8E42A
:1086A00017F0FAFAD5E4FFF79DFAD2E4606817F004
:1086B00099FE02460B46A068CDE9022317F092FE10
:1086C00013ACCDE900013F4A2046322118F068FF83
:1086D0009BE5632D6068029540F2918117F082FE60
:1086E00013ACCDE90001384A2046322118F058FF7A
:1086F0008BE5DAF80830994200F0DB8033780B70B4
:10870000DAF804300133CAF804300124C2E5224605
:108710004846FFF75FFB012660E600BFDC3E040031
:10872000C0BE00202C45040068450400A845040094
:10873000E44504002046040054460400A04604001A
:10874000BC460400D8460400EC4604000847040078
:10875000584204005467002070420400600000107A
:1087600064000010804204009C420400C8420400DF
:10877000E442040008430400284304003C4304008E
:108780005043040064430400744304008443040021
:10879000244204007C3E04003042040054AD00201A
:1087A0004442040094430400D84304001C440400E1
:1087B00060440400A4440400E8440400303E040083
:1087C0000CAE00202C4704004C470400002E3FF460
:1087D000D6AD994940460FF043FCD9E90045AC427B
:1087E0000CD0964E14F8011B0A2240460FF09CFD57
:1087F000314640460FF034FCA542F3D19049404643
:108800000FF07CFC8F4940460FF02AFCDAE9004566
:10881000AC420CD0894E14F8011B0A2240460FF0DE
:1088200083FD314640460FF01BFCA542F3D184493D
:1088300040460FF063FC40460FF0CEFE00283FF4A8
:10884000A4AD814C01E00FF0E5FE20460FF0C4FE20
:1088500000282046F7DCD9E90032934218BFC9F856
:108860000430DAE9003279497748934218BFCAF8F0
:1088700004300FF043FC764973480FF03FFC734916
:1088800071480FF03BFC73496F480FF037FC724999
:108890006D480FF033FC714816F0F4FE704816F086
:1088A000F1FEFFF7D6BB2A464846FFF793FA0124AC
:1088B000E4E432465046FFF78DFA0124EAE4002C46
:1088C0003FF4CEAC5C4940460FF0CAFBD9E9004505
:1088D000AC420CD0594E14F8011B0A2240460FF04E
:1088E00023FD314640460FF0BBFBA542F3D154496E
:1088F00040460FF003FC534940460FF0B1FBDAE964
:108900000045AC420CD04D4E14F8011B0A224046E3
:108910000FF00AFD314640460FF0A2FBA542F3D10D
:10892000474940460FF0EAFB40460FF055FE04462B
:1089300000283FF49CAC444C01E00FF06BFE204655
:108940000FF04AFE00282046F7DC84E7DAF808300A
:10895000994208D02B780B70DAF804300133CAF84A
:108960000430012646E52A465046FFF733FA012631
:1089700040E5CAF808300123002400250360394A85
:1089800039495046CAE9004517F0BAFDF5E4CAF87E
:1089900008300123002400250360324A3249504642
:1089A000CAE9004517F0ACFD58E400200021C9E9F0
:1089B0000001C9F808302B4A2B490123484633608F
:1089C00017F09EFD44E400200021C9E90001C9F828
:1089D0000830244A244901234846336017F090FDAB
:1089E000C5E421B0BDE8F08F17F0FCFC13AC0246E3
:1089F0000B4600951D49204618F006FE05E417F0C9
:108A0000F1FC13ACCDE90001194A2046322118F0DF
:108A1000C7FDFFF7FABBBFF34F8F1649164BCA6865
:108A200002F4E0621343CB60BFF34F8F00BFFDE75A
:108A300013ACFFF7EABB00BF0C4204002042040065
:108A40001442040018420400C0BE0020EC3D0400A3
:108A5000683E0400DC3E0400303E04001468002040
:108A60004066002000600020D57B0200944704008F
:108A70006447040000ED00E00400FA05BFF34F8FE7
:108A80000549064BCA6802F4E0621343CB60BFF3AA
:108A90004F8F00BFFDE700BF00ED00E00400FA05C6
:108AA00032DF704741DF704710B50446006808B1F7
:108AB00016F056F9204610BD70B5434C434DFDF7F6
:108AC00087FEE3682668984238BF1846E060FDF7E5
:108AD0007FFE361AFEF786FE2268636AA968D31AFB
:108AE0008B4247D9B6F57A7F8CBF02230023D4E9A5
:108AF0000A01101AFB28A2EB010195F8210028BFFA
:108B00000323B1F5FA7F88BF0123C0B1216B511A4D
:108B1000322914D995F8203073B30623616B511AAA
:108B2000322910D9A36BD31A642B29D8304662633B
:108B3000FEF7BEFB6869BDE8704013F061BC95F8B4
:108B400020100029EAD1A16B511A642918D8013BE1
:108B5000052BEFD801A151F823F000BF9D8B020037
:108B6000A18B0200C38B0200818B02002D8B0200BF
:108B7000938B02000023BAE7A36BD31A642B08D9A6
:108B80001348A26303F026FB6869BDE8704013F048
:108B900037BC30462263FEF705FCCBE7E262C9E74B
:108BA0000C4E304603F02AF9D6E90121337B3078A8
:108BB00084F88330236884F85F00C4E90621636287
:108BC000B8E7A262B6E700BF54670020AC66002099
:108BD0001C68002028660020F0B41F4B1F4C204A60
:108BE0009A6194E80700002503F14806A3F846506F
:108BF00003C6327003F1680603C640F201115984BE
:108C0000012159850521196047F2305199604FF0D3
:108C1000800C1021C3E904C14FF0807708204FF089
:108C2000FF3183F82950DD85C3F83650DD63C3F882
:108C300042505D87A3F84050C3F81E70C3F82570FA
:108C40005860D86019639986327094E807008833B9
:108C500003C31A70F0BC7047AC660020AC47040038
:108C60000F0F00082DE9F041194CDFF87880194FFB
:108C7000194E04F10D054146384618F0DDFB217808
:108C8000304618F0D9FB0A2018F0EEFB14F8010B5F
:108C9000002117F013F9AC42EDD1104CDFF84480FD
:108CA0000C4F0F4E251D4146384618F0C5FB217864
:108CB000304618F0C1FB0A2018F0D6FB14F8010B5F
:108CC000022117F0FBF8AC42EDD1BDE8F08100BF06
:108CD000186000206C3D0400C0470400286000209C
:108CE000DC470400B84704002DE9F04F4D4BDFF896
:108CF000508185B01E46019313F076FBB246C8F84A
:108D0000000016F8010B022117F0D8F8464BB342C9
:108D1000F7D1464ADFF82C91002342F0010202937A
:108D20001F460092424E0121F05C17F0C7F8029BEB
:108D30000021F05C3F4E17F001F9009B402098475E
:108D40003D4A029B3D491278D1F810154FF0A040E2
:108D500003EB4303D0F8100503971A4406EBC20C4B
:108D6000C04346F83200C94306EBC302CCF80410F6
:108D7000D2E9030156F83360D2E9013C526903435A
:108D800046EA0C0643EA020B0E43002308E0D8F83B
:108D90000000FDF763FC039B01330C2B039321DCE4
:108DA0001AF8033059F82330C3F120020BFA02F20B
:108DB00026FA03F0203B10432BFA03F3184300F08C
:108DC00001043D4654EA050303AA02A9DFD1D8F8FD
:108DD000000003AA02A9FDF759FC039B01330C2BE9
:108DE0000393DDDD029B124A0021D05C17F066F888
:108DF000029B0133032B029394DD019C14F8010BB9
:108E0000002117F05BF8084BA342F7D10A4A137808
:108E10000133DBB2022B84BF074A0023137005B075
:108E2000BDE8F08F1860002025600020A04C0400F1
:108E300028600020C8650020C465002000030050A1
:108E400054670020246A0400F0B5484C484949485A
:108E50002578494F494E87B018F0EEFAA179637929
:108E60002279E0780491A1780393CDE900103B7852
:108E7000029205936378318841482A4618F0DCFA5B
:108E80000A2018F0F1FA328842F6AA139A4201D069
:108E900007B0F0BD202D47D8202DF9D801A353F8F5
:108EA00025F000BF5B8F0200318F0200478F020068
:108EB000918E0200318F0200918E0200918E02008D
:108EC000918E0200318F0200918E0200918E02007D
:108ED000918E0200918E0200918E0200918E02000E
:108EE000918E0200318F0200918E0200918E02005D
:108EF000918E0200918E0200918E0200918E0200EE
:108F0000918E0200918E0200918E0200918E0200DD
:108F1000918E0200918E0200918E0200918E0200CD
:108F2000918E0200318F0200402D01D0802DAFD1F3
:108F30003B78144923443525012000225D700870D8
:108F4000227007B0F0BD3B780E492344352501203F
:108F500002225D70087022709AE73B78094A1C442F
:108F6000292101236170137092E700BF346400204F
:108F7000FC4704006C3D04004D64002006640020A2
:108F8000044804004C64002008B50120FFF788FD68
:108F9000BDE80840FFF786BDF8B5D0E900638768F3
:108FA000BB420446A1EB06061DD08B4294460D46FB
:108FB0001A4611D033F8020CBCF8007022F8020BEC
:108FC000981E8142626005D0421A981A17F056FB2B
:108FD000206830442F80F8BDBCF8001022F8021B36
:108FE00018466260F8BDFDF7F9FB20683044F8BD13
:108FF0002DE9F0470746294E17F8013BD6F800C087
:1090000082B0002B3BD0DFF898806446B14616E072
:1090100030F8022C21F8022B9C42A3EB0402716071
:10902000A0EB0200214605D017F028FBD6F800C0BF
:109030000CEB0A0325801C4617F8013BFBB118F81E
:10904000135008EB4303D6E90102002D5B7814BFEF
:109050004FF4007500251D4390420146A0F1020324
:10906000ADF80650A4EB0C0A0CD0A0422246CFD19A
:1090700022F8025B726017F8013B002BDFD102B0CF
:10908000BDE8F08721460DF106024846FDF7A6FB34
:10909000D6F800C00CEB0A04CEE700BFB86500208C
:1090A0002C5F04002DE9F04342F2A603984297B0EA
:1090B00001F06D8100F2188141F2A613984201F08F
:1090C000298140F2CF8041F6AB13984201F0FB803A
:1090D00040F2828041F6A653984201F0E98048D9D7
:1090E00041F6AB63984201F0BE8030D941F6A673D9
:1090F000984201F0418141F6AB73984224D1CD4CA6
:1091000040F262432168ADF8243009AA2046FFF7F7
:1091100043FF40F25A432168ADF8243009AA2046A3
:10912000FFF73AFF40F25C432168ADF8243009AA0A
:109130002046FFF731FF40F25B432168ADF8243051
:1091400009AA2046FFF728FF17B0BDE8F08341F6D3
:10915000AB53984201F0EB8041F6A6639842F3D1FD
:10916000B54B93F8AB30002BEED0B448FFF740FF7F
:10917000EAE741F6AB33984201F059844BD941F606
:10918000A643984201F0488441F6AB439842DBD1B4
:10919000A84C09AA216840F262452046ADF8245047
:1091A000FFF7FAFE40F25A432168ADF8243009AACD
:1091B0002046FFF7F1FE2168ADF8245009AA2046A9
:1091C000FFF7EAFE40F25C432168ADF8243009AABB
:1091D0002046FFF7E1FEB7E741F2A653984201F0BF
:1091E000EF8340F27A8341F6A603984201F0DD83D3
:1091F00024D941F6AB03984201F0018541F6A6134C
:109200009842A1D18C4B93F8AB30002B9CD08C486A
:10921000FFF7EEFE98E741F6AB23984201F05A843F
:1092200041F6A633984240F09483834B93F8AB30D9
:10923000002B89D08348FFF7DBFE85E741F2A66368
:10924000984201F01B8441F2A67398427FF47CAFF0
:10925000794B93F8AB30002B3FF476AF7A48FFF7A9
:10926000C7FE71E740F6AB23984201F05A8440F202
:10927000A58240F6A663984201F0AD8240F2618279
:1092800040F6AB73984201F0468377D941F2A603CA
:10929000984201F0358341F2AB0398427FF454AF1A
:1092A000644C40F262432168ADF8243009AA20469C
:1092B000FFF772FE40F25A452168ADF8245009AA22
:1092C0002046FFF769FE216809AA40F25B43204669
:1092D000ADF82430FFF760FE2168ADF8245009AAEC
:1092E0002046FFF759FE2FE743F6AB33984201F0D3
:1092F000378340F2E58044F2A623984201F0F582DC
:1093000040F2A48044F2AB53984201F06C8578D9C6
:1093100046F6A613984201F05D8542D946F6AB1396
:10932000984201F0878546F6AB2398427FF40CAF54
:10933000404C09AA216840F262432046ADF824302F
:10934000FFF72AFE216809AA40F259432046ADF8EA
:109350002430FFF721FE216809AA40F25F4320462E
:10936000ADF82430FFF718FE40F25E432168ADF8F7
:10937000243009AA2046FFF70FFEE5E640F6AB636E
:10938000984201F0AE8440F6A67398427FF4DCAEBA
:10939000294B93F8AB30002B40F0EA84FDF7D2FE66
:1093A000D2E646F6A603984201F0008246F6AB03E9
:1093B00098427FF4C9AE1F4C09AA216840F262436B
:1093C0002046ADF82430FFF7E7FD216809AA40F2F6
:1093D00059432046ADF82430FFF7DEFD216809AA85
:1093E00040F25D432046ADF82430FFF7D5FD40F252
:1093F0005C432168ADF8243009AA2046FFF7CCFD74
:10940000A2E644F2A643984201F0C68140F2808071
:1094100044F2AB43984200F0018744F2A6539842CD
:109420007FF492AE044A92F8AB3083F0010382F8E5
:10943000AB3089E6B8650020546700205449040029
:10944000204904003C4904000449040043F6A67383
:10945000984200F08C8540F26F8344F2AB0398424F
:1094600000F05E8540F20E8244F2A613984200F0AE
:109470004B8544F2AB1398427FF466AECC4C09AAFC
:10948000216840F26245204640F25A46ADF8245029
:10949000FFF782FD2168ADF8246009AA2046FFF796
:1094A0007BFD2168ADF8246009AA2046FFF774FD12
:1094B0002168ADF8245009AA2046FFF76DFD43E668
:1094C00042F2AB63984200F0F88440F2DD8042F64D
:1094D000AB63984200F0CA8440F2A08043F6A62312
:1094E000984201F0808340D943F6AB23984201F0C3
:1094F000538343F6A63398427FF426AEAD4B93F8E0
:10950000AB30002B3FF420AEAB48FFF771FD1BE6FC
:1095100044F2A633984201F0998344F2AB33984267
:1095200051D1A34C09AA216840F262432046ADF80C
:109530002430FFF731FD40F25A432168ADF8243062
:1095400009AA2046FFF728FD40F25D452168ADF8E5
:10955000245009AA2046FFF71FFD2168ADF82450CA
:1095600009AA2046FFF718FDEEE543F2AB639842E7
:1095700000F0738743F2AB7398427FF4E5AD8C4CF7
:1095800009AA216840F262452046ADF82450FFF751
:1095900003FD40F25A432168ADF8243009AA204661
:1095A000FFF7FAFC2168ADF8245009AA2046FFF71E
:1095B000F3FC40F25E432168ADF8243009AA20464E
:1095C000FFF7EAFCC0E544F2AB2398427FF4BCAD60
:1095D000774C09AA216840F262432046ADF8243056
:1095E000FFF7DAFC216809AA40F25A432046ADF899
:1095F0002430FFF7D1FC216809AA40F25D432046E0
:10960000ADF82430FFF7C8FC40F25B432168ADF8A9
:10961000243009AA2046FFF7BFFC95E542F6AB23AC
:10962000984200F0F38651D942F6AB43984200F0DD
:10963000978742F6AB5398427FF486AD5C4C09AAFB
:10964000216840F262432046ADF82430FFF7A4FCC5
:10965000216809AA40F259432046ADF82430FFF7AB
:109660009BFC216809AA40F25D432046ADF82430F6
:10967000FFF792FC40F25C432168ADF8243009AA60
:109680002046FFF789FC5FE542F2AB33984200F0D9
:109690003A8740F2248242F2A653984200F027878C
:1096A00021D942F2AB53984200F0FC8642F2A66305
:1096B00098427FF449AD3F4B93F8AB30002B40F01C
:1096C000538342F2A660FDF767FE3DE542F2AB73BD
:1096D000984200F0748642F6A613984240F06282E7
:1096E00016F0D2FA30E542F2A643984200F05B86CB
:1096F00042F2AB4398427FF427AD2D4C09AA216872
:1097000040F262432046ADF82430FFF745FC40F2BA
:109710005A432168ADF8243009AA2046FFF73CFCE3
:1097200040F259452168ADF8245009AA2046FFF7B8
:1097300033FC2168ADF8245009AA2046FFF72CFC21
:1097400002E540F6AB43984200F0428356D940F61A
:10975000A653984201F0BA8240F6AB5398427FF488
:10976000F3AC134C09AA216840F262432046ADF8DD
:109770002430FFF711FC216809AA40F25943204622
:10978000ADF82430FFF708FC216809AA40F26143D4
:109790002046ADF82430FFF7FFFB40F25E4321681E
:1097A000ADF8243009AA2046FFF7F6FBCCE400BF51
:1097B000B865002054670020044A040040F2A673F4
:1097C000984201F07F8240F2048140F6A61398424D
:1097D00001F06D8228D940F6AB13984201F0D38294
:1097E00040F6A62398427FF4AFACCB4B93F8AB3056
:1097F000002B40F0B582FDF7BFFCA5E440F6AB338B
:10980000984201F0998240F6A643984240F01681B2
:10981000C14B93F8AB30002B40F09E820320FDF744
:109820005BFCFDF7A1FC8FE440F6A603984201F033
:109830007F8240F6AB03984240F0C581B74C40F2BE
:1098400062432168ADF8243009AA2046FFF7A4FB43
:1098500040F25A452168ADF8245009AA2046FFF786
:109860009BFB2168ADF8245009AA2046FFF794FB22
:109870004FF48C632168ADF8243009AA2046FFF725
:109880008BFB61E443F6AB7398427FF45DACA34C71
:1098900009AA216840F262432046ADF82430FFF760
:1098A0007BFB216809AA40F25A432046ADF82430D8
:1098B000FFF772FB216809AA40F259432046ADF830
:1098C0002430FFF769FB4FF48C632168ADF8243036
:1098D00009AA2046FFF760FB36E441F2A63398421E
:1098E00000F0F98745D941F2AB33984200F0CC87BC
:1098F00041F2A64398427FF427AC874B884A93F8FD
:10990000AB30002182F82E10002B3FF41DAC834CAD
:109910008448FFF76DFB28252168ADF8245009AA7B
:109920002046FFF739FB8048FFF762FB2168ADF85E
:10993000245009AA2046FFF72FFB7C48FFF758FB6D
:109940002168ADF8245009AA2046FFF725FBFFF750
:10995000FBBB41F6A62398427FF4F6AB6E4B93F81F
:10996000AB30002B3FF4F0AB7148FFF741FBFFF742
:10997000EBBB41F2A623984200F0628741F2AB2391
:1099800098426AD1654C09AA216840F26243204698
:10999000ADF82430FFF700FB216809AA40F25A43D2
:1099A0002046ADF82430FFF7F7FA216809AA40F203
:1099B0005B432046ADF82430FFF7EEFA40F25C43FB
:1099C0002168ADF8243009AA2046FFF7E5FAFFF731
:1099D000BBBB40F2AB53984200F00D8767D940F211
:1099E000A663984200F0018740F2AB6398427FF48F
:1099F000ABAB4A4C40F262432168ADF8243009AA6F
:109A00002046FFF7C9FA40F25A452168ADF82450C4
:109A100009AA2046FFF7C0FA2168ADF8245009AA28
:109A20002046FFF7B9FA40F25E432168ADF82430D2
:109A300009AA2046FFF7B0FAFFF786BB40F6A63327
:109A400098427FF481AB344B93F8AB30002B3FF45A
:109A5000D2AE3848FFF7CCFACDE641F2AB139842CC
:109A60007FF472AB2D4C09AA216840F26243204674
:109A7000ADF82430FFF790FA40F25A432168ADF870
:109A8000243009AA2046FFF787FA40F25B45216897
:109A9000ADF8245009AA2046FFF77EFA2168ADF8F8
:109AA000245009AA2046FFF777FAFFF74DBB40F292
:109AB000AB43984200F0248640F2A653984240F00F
:109AC000DC801748144A90F82A3001214B4080F876
:109AD0002A3082F8AF1082F8AC10FFF735BB42F2A3
:109AE000A623984200F06B8640F2978042F2AB23A7
:109AF000984200F0DE8542F2A63398427FF424AB10
:109B0000054B93F8AB30002B40F03B8142F2A6307E
:109B1000FDF742FCFFF718BB54670020B865002032
:109B2000AC66002038480400544804006048040033
:109B300034490400B048040043F6AB53984201F0A6
:109B4000918040F2A18043F6A663984200F02F85F1
:109B500043F6AB6398427FF4F7AAB74C09AA216891
:109B600040F262432046ADF82430FFF715FA40F288
:109B70005A432168ADF8243009AA2046FFF70CFAB1
:109B800040F259452168ADF8245009AA2046FFF754
:109B900003FA2168ADF8245009AA2046FFF7FCF922
:109BA000FFF7D2BA42F2A67398427FF4CDAAA34B34
:109BB00093F8AB30002B40F0E08042F2A670FDF746
:109BC000EBFBFFF7C1BA40F2AB7398427FF4BCAA3B
:109BD000994C40F262432168ADF8243009AA20462E
:109BE000FFF7DAF940F25A452168ADF8245009AA86
:109BF0002046FFF7D1F92168ADF8245009AA204684
:109C0000FFF7CAF940F25F432168ADF8243009AA92
:109C10002046FFF7C1F9FFF797BA42F2A613984220
:109C200000F0FD8042F2AB13984240D1824C09AA69
:109C3000216840F262432046ADF82430FFF7ACF9CA
:109C4000216809AA40F25A432046ADF82430FFF7B4
:109C5000A3F9216809AA40F25C432046ADF82430FC
:109C6000FFF79AF940F25D432168ADF8243009AA64
:109C70002046FFF791F9FFF767BA40F2A6439842F2
:109C80007FF462AAFEF7FAFE43F6AB43984200F077
:109C90005C8543F6A653984233D1694C237B2678E2
:109CA000032B01F28E81DFE803F080703C3C42F22E
:109CB000AB0398427FF448AA5F4C09AA216840F29E
:109CC00062432046ADF82430FFF766F940F25A436C
:109CD0002168ADF8243009AA2046FFF75DF940F26B
:109CE0005C452168ADF8245009AA2046FFF754F9D5
:109CF0002168ADF8245009AA2046FFF74DF9FFF777
:109D000023BA43F6A64398427FF41EAA4B4B93F81E
:109D1000AB30002B3FF418AA4A48FFF769F9FFF768
:109D200013BA632E606841F2348116F05BFB09AD13
:109D300002460B4600964449284617F065FC284623
:109D4000FFF756F93C4828230168ADF81C3007AAF4
:109D5000FFF722F9FFF7F8B93C48FFF749F95DE54D
:109D60003B48FFF745F946E53A48FFF741F9A8E4D3
:109D70003948FFF73DF9FFF711BB3848FFF738F9CD
:109D80001BE73748FFF734F9C0E6632E6068029698
:109D900041F20B8116F026FB09ADCDE90001314AF5
:109DA0002846322117F0FCFBC9E7606816F01AFB61
:109DB00002460B46A068CDE9022316F013FB09AD5D
:109DC000CDE90001284A2846322117F0E9FBB6E721
:109DD000194C09AA216840F262432046ADF82430AC
:109DE000FFF7DAF8216809AA40F259432046ADF896
:109DF0002430FFF7D1F8216809AA40F261432046D8
:109E0000ADF82430FFF7C8F840F25D432168ADF8A3
:109E1000243009AA2046FFF7BFF8FFF795B9074B92
:109E200093F8AB30002B41F07B8042F2A610FDF797
:109E3000B3FAFFF789B900BFB86500205467002066
:109E4000286600200C4A04007C470400B84804003F
:109E5000A8480400CC490400D0480400DC490400B0
:109E60009C4904004C4704002C470400D84C09AA24
:109E7000216840F262432046ADF82430FFF78CF8A9
:109E8000216809AA40F259432046ADF82430FFF773
:109E900083F8216809AA40F25B432046ADF82430DC
:109EA000FFF77AF84FF48C632168ADF8243009AAE3
:109EB0002046FFF771F8FFF747B9C54C09AA21689A
:109EC00040F262432046ADF82430FFF765F8216880
:109ED00009AA40F25A432046ADF82430FFF75CF857
:109EE000216809AA40F259432046ADF82430FFF713
:109EF00053F840F25B432168ADF8243009AA2046AC
:109F0000FFF74AF8FFF720B9B24BB349012200200E
:109F100081F82F0083F8AF2083F8AC20FFF714B945
:109F2000AB4C09AA216840F262432046ADF82430C8
:109F3000FFF732F8216809AA40F25A432046ADF8EB
:109F40002430FFF729F8216809AA40F25943204636
:109F5000ADF82430FFF720F840F261432168ADF8F6
:109F6000243009AA2046FFF717F8FFF7EDB8984C00
:109F70009A48DFF86092984E09AD4FF02808FFF735
:109F800037F82168ADF824802A462046FFF704F808
:109F900093490022284607AF17F036FB2846FFF703
:109FA00027F82168ADF81C803A462046FEF7F4FFFA
:109FB0008C496FF05902284617F026FB2846FFF718
:109FC00017F82168ADF81C803A462046FEF7E4FFFA
:109FD0008548FFF70DF82168ADF81C803A46204609
:109FE000FEF7DAFF09F1600399F982207F492846DC
:109FF00017F00AFB2846FEF7FBFF2168ADF81C802E
:10A000003A462046FEF7C8FF09F13C0399F95E2065
:10A010007749284617F0F8FA2846FEF7E9FF216845
:10A02000ADF81C803A462046FEF7B6FF09F18403DE
:10A0300099F9A6206F49284617F0E6FA2846FEF758
:10A04000D7FF06F148092168ADF81C803A46204642
:10A05000FEF7A2FF68494A46284617F0D5FA284677
:10A06000FEF7C6FF96F8360096F8371096F83820B7
:10A0700096F839300093CDE90309CDE9012128464E
:10A0800096F83A3096F83B205C4917F0BDFA28461E
:10A09000FEF7AEFF96F82F30002B00F03C87DFF87C
:10A0A000748121684A4828233A46ADF81C30FEF7EF
:10A0B00073FF53494246284617F0A6FA2846FEF792
:10A0C00097FF96F83C0096F83D1096F83E2096F8DB
:10A0D0003F300093CDE90308CDE90121284696F8E9
:10A0E000403096F84120474917F08EFA2846FEF78F
:10A0F0007FFF96F82F30012B00F04687DFF818819C
:10A100002168334828233A46ADF81C30FEF744FF57
:10A110003D494246284617F077FA2846FEF768FF81
:10A1200096F8420096F8431096F8442096F8453089
:10A130000093CDE90308CDE90121284696F8463081
:10A1400096F84720314917F05FFA2846FEF750FF8E
:10A1500096F82F30022B00F01287282621681C4821
:10A16000ADF81C603A46FEF717FF21681848ADF8B5
:10A170001C603A46FEF710FF3846FDF7EBFA9DF8F3
:10A180001D009DF81E109DF81F209DF82030CDE980
:10A190000210CDE900321E499DF821309DF82220A1
:10A1A000284617F031FA2846FEF722FF21680848B2
:10A1B000ADF81A600DF11A02FEF7EEFE21680448B0
:10A1C000ADF81A600DF11A02FEF7E6FEFEF7BCBF0D
:10A1D000B865002054670020AC660020D84A04000F
:10A1E000F44A04003C430400504304006443040068
:10A1F0007443040084430400084B0400184B04001B
:10A20000544B0400644B0400944B0400A44B040022
:10A21000D44B04001467002034670020CC4C40F27B
:10A2200062432168ADF8243009AA2046FEF7B4FE47
:10A2300040F25A452168ADF8245009AA2046FEF79D
:10A24000ABFE2168ADF8245009AA2046FEF7A4FE13
:10A2500040F259432168ADF8243009AA2046FEF7A0
:10A260009BFEFEF771BFBA4C40F262432168ADF825
:10A27000243009AA2046FEF78FFE40F25A45216895
:10A28000ADF8245009AA2046FEF786FE216809AAE7
:10A2900040F25C432046ADF82430FEF77DFE216895
:10A2A000ADF8245009AA2046FEF776FEFEF74CBF13
:10A2B000A84B93F8AB30002B3EF446AFA648FEF710
:10A2C00097FEFEF741BFA24C09AA216840F2624303
:10A2D0002046ADF82430FEF75FFE216809AA40F25F
:10A2E0005A432046ADF82430FEF756FE216809AAED
:10A2F00040F25B432046ADF82430FEF74DFE40F2BD
:10A300005F432168ADF8243009AA2046FEF744FED9
:10A31000FEF71ABF8F4B93F8AB30002B40F0F68559
:10A320000120FCF7D9FEFCF71FFFFEF70DBF884C9C
:10A3300009AA216840F262452046ADF82450FEF794
:10A340002BFE40F25A432168ADF8243009AA20467A
:10A35000FEF722FE2168ADF8245009AA2046FEF738
:10A360001BFE40F25D432168ADF8243009AA204667
:10A37000FEF712FEFEF7E8BE764B93F8AB30002BEB
:10A380003EF4E2AE7548FEF733FEFEF7DDBE714BDC
:10A3900093F8AB30002B40F0AF8542F2A600FCF7FB
:10A3A000FBFFFEF7D1BE6B4B93F8AB30002B40F0B8
:10A3B000A88542F2A640FCF7EFFFFEF7C5BE644C4D
:10A3C00009AA216840F262432046ADF82430FEF726
:10A3D000E3FD216809AA40F25A432046ADF8243033
:10A3E000FEF7DAFD216809AA40F259432046ADF88C
:10A3F0002430FEF7D1FD40F25C432168ADF82430F3
:10A4000009AA2046FEF7C8FDFEF79EBE504C09AAD9
:10A41000216840F262432046ADF82430FEF7BCFDCF
:10A42000216809AA40F259432046ADF82430FEF7CE
:10A43000B3FD216809AA40F25E432046ADF82430FE
:10A44000FEF7AAFD40F25D432168ADF8243009AA69
:10A450002046FEF7A1FDFEF777BE3D4C09AA216814
:10A4600040F262452046ADF82450FEF795FD40F2DB
:10A470005A432168ADF8243009AA2046FEF78CFD26
:10A480002168ADF8245009AA2046FEF785FD40F268
:10A490005F432168ADF8243009AA2046FEF77CFD11
:10A4A000FEF752BE2A4C40F262432168ADF82430D8
:10A4B00009AA2046FEF770FD40F25A452168ADF822
:10A4C000245009AA2046FEF767FD216809AA40F238
:10A4D00059432046ADF82430FEF75EFD2168ADF803
:10A4E000245009AA2046FEF757FDFEF72DBE194B52
:10A4F00093F8AB30002B40F0E08442F2A650FCF71A
:10A500004BFFFEF721BE124C09AA216840F26245BA
:10A510002046ADF82450FEF73FFD216809AA40F21D
:10A520005A432046ADF82430FEF736FD216809AACB
:10A5300040F259432046ADF82430FEF72DFD216846
:10A54000ADF8245009AA2046FEF726FDFEF7FCBD13
:10A55000B8650020546700204C4904005C490400A1
:10A56000BC4C09AA216840F262432046ADF8243071
:10A57000FEF712FD216809AA40F259432046ADF8C2
:10A580002430FEF709FD216809AA40F25E43204607
:10A59000ADF82430FEF700FD40F25C432168ADF8D1
:10A5A000243009AA2046FEF7F7FCFEF7CDBDA94CE2
:10A5B000A948FEF71DFD28252168ADF8245009AAF9
:10A5C0002046FEF7E9FCA548FEF712FD2168ADF82C
:10A5D000245009AA2046FEF7DFFCA148FEF708FD3B
:10A5E0002168ADF8245009AA2046FEF7D5FC9D4805
:10A5F000FEF7FEFC2168ADF8245009AA2046FEF7BC
:10A60000CBFC15F0A9FA9849024609A816F0FCFF00
:10A6100007AF09A8FEF7ECFC2168ADF81C503A46DC
:10A620002046FEF7B9FC15F0D7FA9049024609A872
:10A6300016F0EAFF09A8FEF7DBFC2168ADF81C5014
:10A640003A462046FEF7A8FC00238949002209A8C3
:10A6500016F0DAFF09A8FEF7CBFC2168ADF81C5014
:10A660003A462046FEF798FC824B93F82E30012B99
:10A6700000F07684022B00F07184002B00F06284DD
:10A680007D4B93F8A730012B00F04F84022B00F094
:10A690006984002B7EF458AD7848FEF7A9FC282386
:10A6A00021686C48ADF81C303A46FEF775FCFEF7A1
:10A6B0004BBD684C09AA216840F262432046ADF8C0
:10A6C0002430FEF769FC216809AA40F25A4320466B
:10A6D000ADF82430FEF760FC216809AA40F25C4323
:10A6E0002046ADF82430FEF757FC40F25E43216867
:10A6F000ADF8243009AA2046FEF74EFCFEF724BD33
:10A70000544C40F262432168ADF8243009AA204637
:10A71000FEF742FC40F25A452168ADF8245009AAE0
:10A720002046FEF739FC2168ADF8245009AA2046DE
:10A73000FEF732FC40F25C432168ADF8243009AAF0
:10A740002046FEF729FCFEF7FFBC424C09AA21680F
:10A7500040F262432046ADF82430FEF71DFC21682C
:10A7600009AA40F25A432046ADF82430FEF714FC03
:10A77000216809AA40F25D432046ADF82430FEF777
:10A780000BFC40F259432168ADF8243009AA204659
:10A79000FEF702FCFEF7D8BC374B93F8A730012B2D
:10A7A0003EF4D2AC01F0C4FDFEF7CEBC34493548CE
:10A7B00001F000FC334801F021FBFEF7C5BC2E4B35
:10A7C00093F8AB30002B40F06C8342F2A620FCF7EC
:10A7D000E3FDFEF7B9BC284B93F8AB30002B40F0FB
:10A7E0005883FCF799FCFEF7AFBC234B012283F89A
:10A7F000AE20FEF7A9BC174C40F262432168ADF8C9
:10A80000243009AA2046FEF7C7FB40F25A452168CA
:10A81000ADF8245009AA2046FEF7BEFB2168ADF82A
:10A82000245009AA2046FEF7B7FB40F25D43216899
:10A83000ADF8243009AA2046FEF7AEFBFEF784BC33
:10A840000D4B93F8AB30002B40F02F83FCF74AFC04
:10A85000FEF77ABCB8650020C8420400E442040058
:10A8600008430400144A0400304A0400444A040027
:10A8700028430400AC66002054670020C84A040046
:10A88000A5BC020028660020B94C09AA216840F244
:10A8900062432046ADF82430FEF77EFB216809AA0A
:10A8A00040F25A432046ADF82430FEF775FB21688C
:10A8B00009AA40F25B432046ADF82430FEF76CFB5A
:10A8C00040F25D432168ADF8243009AA2046FEF726
:10A8D00063FBFEF739BCA74B93F8AB30002B40F07D
:10A8E000DC82FCF70DFCFEF72FBCA24AA249012333
:10A8F00081F82F3082F8AF3082F8AC30FEF724BCFC
:10A900009C4B93F8AB30002B40F0D3820220FCF735
:10A91000E3FBFEF719BC964C09AA216840F262439A
:10A920002046ADF82430FEF737FB40F2594321684A
:10A93000ADF8243009AA2046FEF72EFB40F261450F
:10A940002168ADF8245009AA2046FEF725FB2168AE
:10A95000ADF8245009AA2046FEF71EFBFEF7F4BB13
:10A96000834C09AA216840F262452046ADF8245084
:10A97000FEF712FB216809AA40F25A432046ADF8BF
:10A980002430FEF709FB216809AA40F25D43204606
:10A99000ADF82430FEF700FB2168ADF8245009AA79
:10A9A0002046FEF7F9FAFEF7CFBB724B93F8AB30B7
:10A9B000002B3EF4C9AB7148FEF71AFBFEF7C4BB8F
:10A9C0006C4B6D4A93F8AB30012182F82E10002BAE
:10A9D0003EF4BAAB664C6A48FEF70AFB28252168AC
:10A9E000ADF8245009AA2046FEF7D6FA6548FEF7CE
:10A9F000FFFA2168ADF8245009AA2046FEF7CCFAE8
:10AA00006148FEF7F5FA2168ADF8245009AA2046FE
:10AA1000FEF7C2FAFEF798BB564B93F8AB30002B0B
:10AA20003EF492AB5948FEF7E3FAFEF78DBB504C6B
:10AA300009AA216840F262432046ADF82430FEF7AF
:10AA4000ABFA216809AA40F25A432046ADF82430F7
:10AA5000FEF7A2FA216809AA40F25B432046ADF84E
:10AA60002430FEF799FA40F261432168ADF82430B2
:10AA700009AA2046FEF790FAFEF766BB3D4B3E4A18
:10AA800093F8AB30022182F82E10002B3EF45CAB21
:10AA9000374C3B48FEF7ACFA28252168ADF8245026
:10AAA00009AA2046FEF778FA3948FEF7A1FA21688C
:10AAB000ADF8245009AA2046FEF76EFA3548FEF795
:10AAC00097FA2168ADF8245009AA2046FEF764FAE7
:10AAD000FEF73ABB264C09AA216840F262432046A1
:10AAE000ADF82430FEF758FA216809AA40F25A431B
:10AAF0002046ADF82430FEF74FFA216809AA40F24B
:10AB00005B432046ADF82430FEF746FA4FF48C63E1
:10AB10002168ADF8243009AA2046FEF73DFAFEF779
:10AB200013BB134C09AA216840F262432046ADF8DA
:10AB30002430FEF731FA216809AA40F25943204631
:10AB4000ADF82430FEF728FA216809AA40F26143E3
:10AB50002046ADF82430FEF71FFA40F25B4321682F
:10AB6000ADF8243009AA2046FEF716FAFEF7ECBA33
:10AB7000B865002054670020AC6600200C49040032
:10AB80006C48040080480400604804004449040004
:10AB90005448040094480400CA4C09AA216840F2B1
:10ABA00062432046ADF82430FEF7F6F9216809AA81
:10ABB00040F25A432046ADF82430FEF7EDF9216803
:10ABC00009AA40F25C432046ADF82430FEF7E4F9D0
:10ABD00040F261432168ADF8243009AA2046FEF70F
:10ABE000DBF9FEF7B1BAB84B93F8AB30002B40F06D
:10ABF0004C8143F6A620FCF7CFFBFEF7A5BAB14C7B
:10AC000009AA216840F262432046ADF82430FEF7DD
:10AC1000C3F9216809AA40F25A432046ADF824300E
:10AC2000FEF7BAF9216809AA40F25B432046ADF865
:10AC30002430FEF7B1F940F25E432168ADF82430CC
:10AC400009AA2046FEF7A8F9FEF77EBA9E4B9F4957
:10AC50000122022081F82F0083F8AF2083F8AC2076
:10AC6000FEF772BA974C40F262432168ADF8243087
:10AC700009AA2046FEF790F940F25A452168ADF83E
:10AC8000245009AA2046FEF787F9216809AA40F254
:10AC90005D432046ADF82430FEF77EF92168ADF81B
:10ACA000245009AA2046FEF777F9FEF74DBA864BE5
:10ACB00093F8A720022A7EF447AA012283F8AD2048
:10ACC000FEF742BA14F0F0FFFEF73EBA7E4B93F85F
:10ACD000AB30002B40F0D5800020FCF7FDF9FEF7EB
:10ACE00033BA784C09AA216840F262432046ADF895
:10ACF0002430FEF751F9216809AA40F25A43204650
:10AD0000ADF82430FEF748F9216809AA40F25B4308
:10AD10002046ADF82430FEF73FF940F25943216850
:10AD2000ADF8243009AA2046FEF736F9FEF70CBA32
:10AD300014F0B2FFFEF708BA624C09AA216840F28B
:10AD400062432046ADF82430FEF726F9216809AAAF
:10AD500040F259432046ADF82430FEF71DF9216832
:10AD600009AA40F261432046ADF82430FEF714F9F9
:10AD700040F25C432168ADF8243009AA2046FEF772
:10AD80000BF9FEF7E1B94F4C09AA216840F2624382
:10AD90002046ADF82430FEF7FFF8216809AA40F2FA
:10ADA00059432046ADF82430FEF7F6F8216809AA89
:10ADB00040F261432046ADF82430FEF7EDF840F252
:10ADC0005A432168ADF8243009AA2046FEF7E4F87A
:10ADD000FEF7BAB93E493F4801F0ECF83D4801F0B2
:10ADE0000DF8FEF7B1B9374C09AA216840F2624369
:10ADF0002046ADF82430FEF7CFF8216809AA40F2CA
:10AE000059432046ADF82430FEF7C6F8216809AA58
:10AE100040F25D432046ADF82430FEF7BDF840F225
:10AE200061432168ADF8243009AA2046FEF7B4F842
:10AE3000FEF78AB9234C09AA216840F262432046F2
:10AE4000ADF82430FEF7A8F8216809AA40F259436A
:10AE50002046ADF82430FEF79FF8216809AA40F299
:10AE60005B432046ADF82430FEF796F84FF48C6330
:10AE70002168ADF8243009AA2046FEF78DF8FEF7C8
:10AE800063B91548FEF7B4F826E71448FEF7B0F8A2
:10AE9000AFE61348FEF7ACF8A3E41248FEF7A8F8B3
:10AEA0001FE51148FEF7A4F88FE41048FEF7A0F85C
:10AEB000CCE40F48FEF79CF828E50E48FEF798F81A
:10AEC000FFF71BBBB865002054670020AC6600206C
:10AED000B9BF020028660020C0480400F049040001
:10AEE000C8480400F848040088490400EC480400FD
:10AEF000D8480400BC4904003348FEF779F8FFF74E
:10AF00004CBA3248FEF774F8FFF753BA3048FEF7F0
:10AF10006FF8FFF705BA2F48FEF76AF8FFF7BFB8DA
:10AF20002D48FEF765F8FEF780BF2C48FEF760F865
:10AF3000282321682A48ADF81C303A46FEF72CF841
:10AF4000FEF702B92748FEF753F82168ADF81C5008
:10AF50003A462046FEF720F8FFF792BB2248F2E778
:10AF60002248F0E72248FEF743F8282321681C48CE
:10AF7000ADF81C303A46FEF70FF8FEF7E5B8154875
:10AF8000FEF736F8FFF7E9B81248FEF731F8FFF799
:10AF9000B5B815F027FA09AD02460B4600961549DB
:10AFA000284616F031FBFEF7CABE15F01BFA09ADB4
:10AFB000CDE90001104A2846322116F0F1FAFEF7D9
:10AFC000BEBE09ADFEF7BBBE64490400AC49040037
:10AFD000E0480400484B040074490400A84A0400F7
:10AFE000B8650020584A04008C4A0400704A0400E6
:10AFF000B84A040094470400644704002DE9F84F60
:10B00000D0E90087334B344E0546A7EB08004010CB
:10B0100003FB00F3B34251D08A469346002B48D03D
:10B02000B3EB430F4FEA4302A1EB080422D9DFF848
:10B03000B090484613F074FE064681443319DBF89D
:10B040000000DBF80410BBF808203051002C5960D8
:10B050001A8113DCA7EB0A070A34002F344422DCE0
:10B060003C44B8F1000F15D1C5E90064C5F808905B
:10B07000BDE8F88F2ABB91461646DFE722464146D7
:10B080003046A7EB0A0715F0F9FA0A34002F3444CA
:10B0900009DC3C44404613F063FEC5E90064C5F892
:10B0A0000890BDE8F88F51463A46204615F0D8FA88
:10B0B000D6E7A1EB08044FF00A09BAE70748FBF707
:10B0C00013FAB24228BF32464FF00A0909FB02F9CF
:10B0D000AFE700BFCDCCCCCCCCCCCC0C483D0400F1
:10B0E000F8FFFF7F2DE9F041D0E901370668BB4248
:10B0F00084B00446A1EB060838D08B420D461646B4
:10B1000026D01A46306852F80ACD716857683689D9
:10B11000C3F800C05F6012891A8101AB03C3606885
:10B120001E80A0F10A0200F10A039542636004D078
:10B13000521B801A294615F0A1FA01AB03CB1B88DC
:10B140002B81286069602068404404B0BDE8F0812C
:10B150001268716859601A6032891A8143680A332B
:10B1600043602068404404B0BDE8F081FFF746FF2B
:10B170002068404404B0BDE8F08100BF2DE9F041F3
:10B18000944C8CB0FBF708FD2388002B40F09D8089
:10B19000914C238833B140F2A542934200F0CB801A
:10B1A000002323808D4DD5E9002393425BD08C4A48
:10B1B0008C4C12788DF8252000268DF824608DF8AF
:10B1C0002A60CDF82660ADF82C6033F8027C33F8A5
:10B1D000028D6B6021687FBA204609AAADF8247001
:10B1E000FFF780FF6B6833F8023C43454FEA1820B5
:10B1F00000F09780D4E900639E4239D053F80A0DDD
:10B20000794F596806AA154603C597F8A7101889FB
:10B2100028800129636000F0A880022963D00029FA
:10B2200058D0B34202D00CB0BDE8F0816C4A97F818
:10B23000A71012788DF8252001294FF000028DF813
:10B240002A208DF82420CDF82620ADF82C2000F0FF
:10B250008180022973D00029E5D1194609AA6148E5
:10B26000FFF740FFDFE75F4CD4E900639E42C5D1A2
:10B270005E4B1C78002C43D05B4F97F8A730012B16
:10B2800000F09080022B00F09480002B00F098805A
:10B29000574C5849584816F0CFF82289A37920799D
:10B2A000396865790592E2780493A378CDE90205BF
:10B2B000CDE9003251486378227816F0BDF80A20B3
:10B2C00016F0D2F80CB0BDE8F081FDF7BDFD00230B
:10B2D00023805DE719464348FFF704FFD4E9006384
:10B2E000B342A0D1A2E707CAFCF7ACFA444BD86836
:10B2F000400011F085F8D4E90063B34293D195E79B
:10B30000404D2888002849D13F4C208888B3364BCF
:10B3100093F8A730012B3ED0022B39D00023238095
:10B3200081E78DF8240021688DF8256009AA204660
:10B33000FFF7D8FE5EE73548FDF75AFE30E70CAB65
:10B3400013E90700FCF77EFA2D4BD868400011F096
:10B3500057F868E70CAB13E9070001F0CFF8284B6A
:10B36000D868400011F04CF85DE707CA01F0C6F854
:10B37000BCE7274C208800283FF455AF1A4B93F8C0
:10B38000A730012B23D0022BC8D1FCF789FAC5E7DF
:10B39000FCF74EFBC2E701F0C3F8BFE7FDF782FE02
:10B3A0002C8040E7124C20686168228901F0A6F8E1
:10B3B0006FE70F4C206861682289FCF743FA68E761
:10B3C0000B4A084831461446FFF78CFE61E701F04E
:10B3D000B3F8A3E70664002062640020B86500208B
:10B3E000944C0400AC650020546700204C6400209D
:10B3F00034640020004C04006C3D0400084C040040
:10B40000AC6600205A6400207064002028480400C4
:10B410006464002008B5FDF767FCFFF7AFFEFBF79B
:10B42000D7F90D4BD9681A68884238BF084693F897
:10B43000A710D86082428CBF101A002031B10229B7
:10B4400008D1BDE80840012100F0A0BFBDE80840D8
:10B4500000F09CBF08BD00BF54670020F8B51C4F2A
:10B460001C4D1D4C1D4E384614F0F0F82A461C4960
:10B47000384615F045F8204614F0E8F82A461849F1
:10B480002046184C15F03CF81749184806F0CEFA3B
:10B4900032462146164800F0D5FD32462146154871
:10B4A000FBF7D0F8144800F023FC1448144900249A
:10B4B0002A46C0E90044846015F022F81148124978
:10B4C0000460C0E901442A46BDE8F84015F018B808
:10B4D00014680020006000204066002054670020AF
:10B4E000FDF50300AC6600200CAE0020486600208D
:10B4F0001C6800201068002028660020B865002025
:10B5000035660200AC650020A98A020008B50A4928
:10B510000A4806F09BF808490948012206F0D4FCC5
:10B5200000B908BD07490648A82206F08BF9BDE816
:10B530000840034806F09CBB2C4C04000CAE0020D5
:10B5400048660020AC66002038B52D480CF08CF918
:10B550002C492D48002206F0B7FC2B4806F00CFDC4
:10B56000F8B12A492848A82206F00CFB264806F024
:10B570007FFB264C2378052B2CD1254C002565829A
:10B58000A4F8B05084F8B25084F8AB5010F02CFFFF
:10B5900084F8A750C4E90000C4E90255C4F8AC50CF
:10B5A00038BDFDF719FB1749154806F04FF8154946
:10B5B0001548012206F088FC0028DAD01349124809
:10B5C000124CA82206F03EF90F4806F051FB2378F2
:10B5D000052BD2D0FDF700FB0A49094806F036F8E2
:10B5E00008490948012206F06FFC0028C5D0214611
:10B5F000A822054806F026F9034806F039FBBCE707
:10B600000CAE00202C4C040048660020AC660020E4
:10B610005467002010B5494C82B000F037FF00F0AD
:10B62000E1FD00F069FEFFF78FFF94F82A30002B50
:10B630004CD14349434815F0FFFE4349434815F0B8
:10B64000FBFE0A2015F010FF94F82530002B6FD177
:10B6500094F82730002B66D101233D4A61683D48AC
:10B660000093002313F0FAFF94F82F00FCF712FA6E
:10B6700000F092F9FDF7F6FAFCF776F8354814F089
:10B6800001F8354BD3E900218A4218BF5A60334B89
:10B69000D3E900218A4218BF5A6094F82030002B69
:10B6A0003DD194F82130002B36D12D4800F0D6FC46
:10B6B0002B4800F0EDFC2B4B00932B492B4800232B
:10B6C0004FF4806213F088FD02B010BD28484FF49B
:10B6D000E1310DF073F8274925480CF00FFD26499C
:10B6E00023480CF00BFD254921480CF007FD2449A7
:10B6F0001F480CF003FD23491D480CF0FFFC2249B4
:10B700001B480CF0FBFC214919480CF0F7FC2049C0
:10B7100017480CF0F3FC8CE7FBF72EFEC5E7A07E84
:10B7200000F09CFDBDE794F8280000F0E3FD93E7EE
:10B7300094F8260000F0DCFD8AE700BFAC6600202C
:10B74000B84704006C3D0400BC3D0400384C0400C4
:10B7500015B4020014680020B8650020AC65002014
:10B760001C680020444C0400B98A020068CE002006
:10B77000C0BE002094430400D84304001C440400CD
:10B7800060440400A4440400E8440400DC3E0400D7
:10B79000303E0400F0B5784D8FB000F0BDFD95F857
:10B7A0002A30E3B995F82E60012E1ED0022E00F04B
:10B7B000AE80002E00F09580704C94F8AD308BBBBD
:10B7C00094F8AF30002B7DD194F8AE3013BB94F8D1
:10B7D000AC302BBB286910F013FE0FB0F0BDFCF7A6
:10B7E00031FC95F82E60012EE0D100F079FE634C1B
:10B7F000002800F0938094F8A730012BDDD0FCF7EF
:10B800000DF8002840F0B280FBF7E6FF012384F832
:10B81000A730D2E75A4805F055FD012384F8AC3033
:10B82000FDF72CF90026FCF703F831461D2206A887
:10B83000059614F03DFF95F82F305249183305A8AE
:10B8400035F8132015F0E0FE05A94D4805F0FEFE81
:10B8500095F82F204C4902EB420205EB420205A865
:10B8600092F83B7092F83A30039792F8397002934D
:10B8700092F83830CDE9003792F8373092F8362018
:10B8800015F0C2FE05A93E4805F0E0FE95F82F2010
:10B890003E493620062313FB02031832E8184FF600
:10B8A000FF7725F81270EE50868095F82F3007C983
:10B8B00005EB4313483303C301211A7084F8AF101A
:10B8C00084F8AC1032492E4805F0C0FE30493148AA
:10B8D000012206F0F9FA00283FD1002384F8AF30A6
:10B8E00072E700F0FDFD38B3244C94F8A730012B2B
:10B8F0003FF463AFFBF792FF00283AD1FBF76CFFF0
:10B90000012384F8A73010F06FFDE06055E7FBF7E6
:10B9100085FF1A4C28B184F8A7604EE784F8A70089
:10B920004BE794F8A730002B3FF447AFFBF71CFF21
:10B93000002384F8A73040E7FBF770FF0F4C94F822
:10B94000A7300028EFD0022B3FF437AF022384F852
:10B95000A73010F049FDE0602FE707490D48A82205
:10B9600005F070FF0B4806F083F9B6E7FBF760FFC0
:10B970004AE7FBF75DFFC1E7AC6600205467002093
:10B980000CAE0020484C0400644C0400AC4704009A
:10B990002C4C0400486600202DE9F04FADF51D7DCC
:10B9A0002349DFF89880D022684614F059FED0224F
:10B9B00020490DEB020014F053FE1F49D02268A865
:10B9C00014F04EFE0DF1CC0AADF104090DF5CE7B5D
:10B9D000A8F58354143C5F4656464D46204655F81C
:10B9E000043F00220121FAF791FD204656F8043F5A
:10B9F00000220221FAF78AFD204657F8043F002270
:10BA0000032104F5A274FAF781FD4445E6D109F15A
:10BA1000340933AB04F58358994508F114080AF149
:10BA2000340A0BF1340BD3D10DF51D7DBDE8F08F39
:10BA3000A84C0400784D0400484E0400A078002073
:10BA4000032202210120FAF7ABBE00BF10B5714CF2
:10BA500029212046FAF74AFD04F5A2701421FAF7CD
:10BA600045FD04F522701A21FAF740FD04F57370C4
:10BA70000821FAF73BFD04F5A2601521FAF736FD1F
:10BA800004F254601721FAF731FD04F5F3601C212C
:10BA9000FAF72CFD04F6DC001821FAF727FD04F56F
:10BAA00022600C21FAF722FD04F664301221FAF725
:10BAB0001DFD04F6A8401321FAF718FD04F6EC501A
:10BAC0002F21FAF713FD04F573603021FAF70EFD0C
:10BAD0002B215148FAF70AFD04215048FAF706FDD8
